:020000040800F2
:100000005808002001010008671400087513000853
:100010006514000863080008291A000800000000A1
:10002000000000000000000000000000B7170008FA
:100030006508000800000000B5170008B91700089F
:100040001B0100081B0100081B0100081B01000820
:100050001B0100081B0100081B0100081B01000810
:100060001B0100081B0100081B0100081B01000800
:100070001B0100081B0100081B0100081B010008F0
:100080001B0100081B0100081B0100081B010008E0
:100090001B0100081B0100081B0100081B010008D0
:1000A0001B0100081B0100081B0100081B010008C0
:1000B0001B0100081B0100081B0100081B010008B0
:1000C0001B0100081B0100081B0100081B010008A0
:1000D0001B0100081B0100081B0100081B01000890
:1000E0001B0100081B0100081B010008DFF80CD0F1
:1000F00000F0FCFA0048004755240008580800208A
:100100000648804706480047FEE7FEE7FEE7FEE7B1
:10011000FEE7FEE7FEE7FEE7FEE7FEE70D18000854
:10012000ED000008202A04DB203A21FA02F0002129
:10013000704721FA02F3D040C2F1200291400843F7
:1001400019467047D2B201E000F8012B491EFBD2DC
:1001500070470022F6E710B513460A4604461946D2
:10016000FFF7F0FF204610BDF0B480EA0102D40F83
:100170004200B2EB410F02D20246084611464A0045
:1001800042D0C30DDDB2C1F3C752AD1A202D35DA0E
:10019000C1F3160141F4000204B15242C5F1200638
:1001A00002FA06F12A411044B3EBD05F23D0C4B168
:1001B000012DA0EBC35009DCF0BC4FF0004202EA75
:1001C000C352DBB200F5000000F0A9B8400000F116
:1001D000807000EBC350A0F1807040EAD1704900FC
:1001E00009E0490841EAC071A0EBC35000F50000E6
:1001F000400800EBC350F0BC00F088B86142012217
:1002000002EB4101001BF6E7F0BC704781F00041B2
:10021000AAE780F00040A7E7420005D0C0F3C7522C
:100220005242914201DC0020704700EBC150704700
:1002300020F00040C10DC0F3160040F400007F29FB
:1002400001DA00207047962903DCC1F19601C8400D
:10025000704796398840704700F0004230F0004007
:100260000AD0C10D01F56071C0F3160042EA0151D8
:10027000C20840071143704700200146704730B55F
:100280000B46014600202022012409E021FA02F554
:100290009D4205D303FA02F5491B04FA02F52844EE
:1002A000151EA2F10102F1DC30BD2DE9F05F05461B
:1002B000002092469B4688460646814640241BE025
:1002C0002846414647462246FFF72CFF53465A46EA
:1002D000C01A914110D311461846224600F018FA70
:1002E0002D1A67EB01084F4622460120002100F03D
:1002F0000FFA17EB00094E41201EA4F10104DFDCC8
:10030000484631462A464346BDE8F09F0029A8BF2B
:100310007047401C490008BF20F00100704710B42E
:10032000B0FA80FC00FA0CF050EA010404BF10BCE3
:10033000704749B1CCF1200421FA04F411FA0CF110
:1003400018BF012121430843A3EB0C01CB1D4FEA49
:1003500000614FEA102042BF002010BC704700EB44
:10036000C35010440029A4BF10BC7047401C490072
:1003700008BF20F0010010BC70472DE9FE4F8046F9
:1003800081EA0300C00F0C46009021F0004123F0E9
:100390000045B8EB0200A94105D2404621469046EF
:1003A0001C460B46024623F00040104347D0270D61
:1003B000C7F30A00C3F30A510290401A0190402883
:1003C0006BDAC3F3130040F4801B0098924620B10F
:1003D0000023D2EB030A63EB0B0B01985946C0F1E3
:1003E0004002504600F094F906460D4650465946E4
:1003F000019A00F09CF910EB08006141002487EAA3
:10040000115284EAE7731A4340D0009A62B3019A0A
:10041000012A4FEA075215DC001B61EB02014FF085
:10042000004202EA0752CDE90042001C41F580116A
:1004300032462B4600F09CF903B0BDE8F08F4046F1
:100440002146F9E7001B61EB0201001C41F5801316
:1004500000185B412018A2F5001747EB030140EAA2
:10046000D570B6196D4111E06D084FEA360645EAC0
:10047000C0754FEA0752001B61EB0201001C41F5F9
:10048000801149084FEA30000019514132462B468D
:1004900003B0BDE8F04F00F05CB9009801224000C5
:1004A0000023D0EB020263EBE073009821464FEA91
:1004B000E074B8EB000061EB0401E9E783F000436E
:1004C0005BE781F0004158E72DE9FE4F81EA030424
:1004D00004F0004421F0004100944FF0000B23F0A1
:1004E000004350EA01045ED052EA03045BD0C3F338
:1004F0000A54C1F30A552C44A4F2F3340194A0FB2E
:100500000254C1F3130141F48011C3F3130343F404
:10051000801301FB024400FB034E840A970A44EA5D
:10052000815447EA8357A4FB076802958D0A05FBAF
:1005300007854FEA932C04FB0C542705029D4FEAD4
:10054000065847EA1637B5EB08056EEB070C870E21
:10055000920E47EA811742EA8312A7FB0201B6EB2B
:100560000B0164EB00042B0D43EA0C335E1844EBE3
:100570001C50DA465146E7FB0201C5F313044FEA6B
:100580000B3343EA14534FEA0432019C43EA060357
:10059000A4F10C040294009CCDE900B400F0E8F84A
:1005A00003B0BDE8F08F00200146F9E72DE9F04DDA
:1005B00081EA030404F0004B21F0004514464FF09B
:1005C000000A23F0004150EA050220D054EA01025B
:1005D0001DD0C5F30A570246C5F31303C1F3130038
:1005E000C1F30A5640F4801543F48013A7EB0608C4
:1005F000101BD64608F2FD3873EB050002D308F154
:10060000010801E092185B41B8F1000F03DA002005
:100610000146BDE8F08D00204FF480110646844667
:100620000EE0171B73EB050705D3121B63EB0503E5
:1006300006434CEA010C49084FEA300092185B412E
:1006400050EA0107EDD152EA030012D082EA040019
:1006500083EA0501084305D0101BAB4106D20122F5
:10066000002306E000224FF0004302E06FF0010299
:1006700053101AEB06004CEB085110EB0A0041EB4B
:100680000B01BDE8F04D00F064B8C1F30A52C1F3AC
:10069000130140F2FF3341F480119A4202DA002044
:1006A0000146704740F233439A42A2F2334202DCE1
:1006B0005242FFF737BD00F02BB8000030B5041EE2
:1006C00071F1000404DB4FF00044404264EB01018F
:1006D000141E73F1000405DB1C464FF00043524228
:1006E00063EB0403994208BF904230BD064C074DAE
:1006F00006E0E06840F0010394E8070098471034F2
:10070000AC42F6D3FFF7F6FC782D0008982D0008D0
:10071000202A04DB203A00FA02F1002070479140C1
:10072000C2F1200320FA03F3194390407047202AB6
:1007300006DBCB17203A41FA02F043EAE07306E009
:1007400041FA02F3D040C2F1200291400843194619
:10075000704710B5141E73F1000408DA401C41F113
:10076000000192185B411A4301D120F0010010BD35
:100770002DE9F04D92469B4611B1B1FA81F202E0AB
:10078000B0FA80F220329046FFF7C2FF04460F46CF
:1007900040EA0A0041EA0B0153465A46084313D087
:1007A000114653EA010019D0C8F140025046FFF744
:1007B000B9FC05460E46504659464246FFF7A8FF8B
:1007C000084305D0012004E020463946BDE8F08DFD
:1007D0000020054346EAE0762C4337430A98630538
:1007E000E40AA0EB08000022FD0A44EA47540A305C
:1007F00002D500200146E9E7010510196941DDE94C
:10080000084500196941BDE8F04DA2E770B58C18A4
:1008100010F8015B15F0070301D110F8013B2A1114
:1008200006D110F8012B03E010F8016B01F8016B01
:100830005B1EF9D12B0705D40023521E0DD401F8FD
:10084000013BFAE710F8013BCB1A921C03E013F8C6
:10085000015B01F8015B521EF9D5A142D8D30020FB
:1008600070BDFEE77047704770B5044600F0FAF8B7
:100870000546601C02D004480078044400F0F2F8F9
:10088000401BA042FAD370BD040400202DE9F84FAC
:10089000DFF890A100220AF1040B144601274FF063
:1008A0000F090BF1040E00BF0B6807FA04F52B408B
:1008B000AB4274D1DFF870C14E68A6EB0C086645F8
:1008C0002BD00DDC032E34D005DC36B3012E19D02D
:1008D000022E2FD11BE0112E16D0122E2AD119E094
:1008E000B8F5881F19D006DCB8F5803F15D0B8F5EB
:1008F000801F1FD111E0B8F5001F0ED0B8F5041FFE
:1009000018D10AE0CA6815E0CA68121D12E0CA6868
:1009100008320FE0CA680C320CE08A682AB1012A5A
:100920004FF0080203D0456104E0042202E00561B3
:1009300000E00022FF2B01D8064601E000F104068A
:100940004FEA840501D9A5F12005D6F800C009FABF
:1009500005F82CEA080C02FA05F54CEA050CC6F875
:1009600000C04D68ED0057D5304DAE6946F0010628
:10097000AE61AD6924F0030605F0010500952C4D2C
:1009800006EB050CDCF80850A6074FEA167809FAC2
:1009900008F6B543274EB04202D1002610E03BE0F6
:1009A000254EB04201D101260AE0244EB04201D1C9
:1009B000022605E0224EB04201D1032600E00426C3
:1009C00006FA08F62E43CCF808604D68DAF80060A5
:1009D000ED03554601D51E4300E09E432E604D6851
:1009E000DBF80060AD035D4601D51E4300E09E4389
:1009F0002E604D68DEF80060ED02754601D51E439D
:100A000000E09E432E604D68AD020E4D2E6801D56C
:100A10001E4300E09E432E60641C102CFFF444AF84
:100A2000BDE8F88F000401400000111000100240E2
:100A30000000014000080140000C0140001001408E
:100A4000001401400C0401408068084000D00120DF
:100A50007047C2684A40C26070470AB1016170477E
:100A60000904FBE701488068704700000404002087
:100A700002488168027811448160704704040020B4
:100A8000074810B5016841F010010160032000F033
:100A900067F8002000F006F800F024F8002010BDF0
:100AA0000020024070B50D4D04464FF47A7128784D
:100AB000B1FBF0F00A490968B1FBF0F000F0F0FA80
:100AC00048B9102C07D200222146501E00F028F809
:100AD00000206C6070BD012070BD00000404002087
:100AE000100400200C4808B5816941F001018161C2
:100AF000816901F001010091C16941F08051C1613A
:100B0000C06900F0805000900448416821F0E06125
:100B100041F00071416008BD00100240000001403A
:100B2000F0B40E4B1B680C46C3F30223C3F1070558
:100B3000042D00D90425191D072901D2002300E046
:100B4000DB1E012606FA05F1491E214099409E4010
:100B5000761E16403143F0BC00F086BC0CED00E080
:100B6000064900F0070208684FF6FF03184040EA04
:100B70000220034A10430860704700000CED00E0BB
:100B80000000FA052DE9F047DFF8548105460E46CE
:100B9000D8F8000000F00700B0420CD2D8F80010DE
:100BA00021F007013143C8F80010D8F8000000F028
:100BB0000700B0426FD128684A4C810712D5400720
:100BC00003D5606840F4E06060602878000703D5D2
:100BD000606840F4605060606068A96820F0F000D0
:100BE000084360602878C00744D06868012816D0A0
:100BF0002168022816D0890700294CDA616821F0A3
:100C0000030101436160FFF72DFF6968074641F268
:100C1000883001290ED00229814618D026E02168AB
:100C20008903E9E78901E7E7FFF71CFFC11B494595
:100C300001D918E081466068C0F381000128F3D132
:100C400018E000BFFFF70EFFC11B49450BD86068D5
:100C5000C0F381000228F5D10CE000BFFFF702FFCE
:100C6000C11B494502D90320BDE8F087606810F038
:100C70000C0FF3D1D8F80010404601F00701B14243
:100C80000BD9016821F0070131430160006800F0D1
:100C90000700B04201D00120E6E72878400705D5DB
:100CA0006068E96820F4E060084360602878000725
:100CB00006D56068296920F4605040EAC100606090
:100CC00000F036F86168084AC1F30311515CC8406E
:100CD000064908600020FFF7E5FE0020C4E7000099
:100CE0000020024000100240602D00081004002087
:100CF0000448054900684968044AC1F30221515C6F
:100D0000C84070471004002000100240702D0008F9
:100D10000448054900684968044AC1F3C221515C8E
:100D2000C84070471004002000100240702D0008D9
:100D300012A185B00FC98DE80F0014A0144A0068F5
:100D400004905168134801F00C03042B10D0082BB9
:100D50000ED1C1F38343C9031DF803000AD55168BE
:100D600004AAC1F34041515C0A4A5043B0FBF1F080
:100D700005B0704708494843FAE70000020304053C
:100D8000060708090A0B0C0D0E0F101001020000D7
:100D90000010024000127A0000093D002DE9F84FD2
:100DA00004460078B94DC00748D06868C0F3810098
:100DB000012807D06868C0F38100022809D168685B
:100DC000C00306D52868800338D5606800286FD036
:100DD00034E06068B0F5803F0BD010B1B0F5A02FC3
:100DE00011D0286820F480302860286820F4802002
:100DF00002E0286840F480302860606888B1FFF71E
:100E000031FE064609E0286840F480202860F0E7BB
:100E1000FFF728FE801B642875D828688003F7D563
:100E20000CE0FFF71FFE064605E000BFFFF71AFEC5
:100E3000801B6428F0D828688003F7D42078944E6B
:100E400080074FF001094FF000083BD5686810F0AB
:100E50000C0F07D06868C0F38100022809D16868C8
:100E6000C00306D42868800714D5206901281FD143
:100E700010E02069B0B1C6F80090FFF7F3FD074617
:100E800005E000BFFFF7EEFDC01B0228C4D82868AC
:100E90008007F7D52868616920F0F80040EAC100B2
:100EA00028600FE0C6F80080FFF7DCFD074606E08B
:100EB000E9E000BFFFF7D6FDC01B022823D8286851
:100EC0008007F7D4207800072CD57248A169D9B1E2
:100ED000C0F80090FFF7C6FD074604E0FFF7C2FD2B
:100EE000C01B02280FD8686A8007F7D56A484FF4FC
:100EF000FA510068B0FBF1F0009000BF0098411E6D
:100F00000091FAD20EE080E0C0F80080FFF7AAFD61
:100F1000074604E0FFF7A6FDC01B022875D8686AE3
:100F20008007F7D42078400760D5E8690027C00023
:100F300008D4E86940F08050E861E869012700F0D2
:100F40008050009055480168C90513D40168834654
:100F500041F480710160FFF785FD824606E000BF25
:100F6000FFF780FDA0EB0A0064284ED8DBF80000F4
:100F7000C005F5D5E06801280AD008B1052813D0CE
:100F8000286A20F001002862286A20F0040002E0AC
:100F9000286A40F001002862E06841F2883B98B17D
:100FA000FFF760FD82460BE0286A40F004002862EB
:100FB000EEE700BFFFF756FDA0EB0A0159455AD8EE
:100FC000286A8007F6D50CE0FFF74CFD824605E065
:100FD000FFF748FDA0EB0A0159454CD8286A800765
:100FE000F6D41FB1E86920F08050E861E06988B369
:100FF0006968C1F38101022945D00228C6F86080E2
:1010000004D0FFF72FFD044638E034E0FFF72AFD57
:10101000074604E0FFF726FDC01B02282BD82868EE
:101020008001F7D4206AB0F5803F05D16868A168D7
:1010300020F4003008436860D4E908010843696877
:1010400021F4741108436860C6F86090FFF70AFD48
:10105000044606E015E000BFFFF704FD001B022870
:1010600009D828688001F7D50BE000BFFFF7FAFC2C
:10107000001B022802D90320BDE8F88F28688001F0
:10108000F4D40020F8E70120F6E700000010024049
:1010900000004242800442421004002000700040E0
:1010A00010B5401EB0F1807F01D3012010BD4FF07C
:1010B000E02460610F21601700F0D6F90020A061E4
:1010C00007202061002010BD70B5040004D094F802
:1010D0003900002510B106E0012070BD84F83850B9
:1010E000204600F023F8242084F839002068C168E5
:1010F00021F40051C160204600F0ACFB206801697A
:1011000021F4904101612068416921F02A01416187
:101110002068C16841F40051C160E563202084F873
:10112000390084F83A00002070BD000030B585B069
:1011300000240094019402940394006814498842A6
:1011400024D11448816941F480418161816901F4AD
:1011500080410491816941F00401816180690E4DF3
:1011600000F0040004904FF4007000900220019001
:101170000320039069462846FFF788FB2815CDE930
:101180000004694628460294FFF780FB05B030BD95
:101190000038014000100240000801402DE9F843EA
:1011A000044690F839001F4616460D46202850D1B7
:1011B000A5B19EB194F8380001284AD0012084F8E6
:1011C00038004FF00008C4F83C80212084F8390032
:1011D000FFF748FCA6848146E68426E00120BDE8AE
:1011E000F883E08C401EE084A0684B46B0F5805F39
:1011F0004FF000024FF080012046009703D000F02E
:10120000E1FBE8B90DE000F0DDFBC8B928882168F2
:10121000C0F308004860206908B16D1C05E0AD1CF2
:1012200003E0216815F8010B4860E08C0028D8D154
:101230004B46002240212046009700F0C3FB08B136
:101240000320CCE7202084F8390084F8388000207F
:10125000C5E70220C3E7000038B504460121FEF7C8
:10126000DBFFFEF7E5FF8DF8000014F1FF4F03D21E
:101270009DF800003F2804D931A000F0D7FB0120E1
:1012800038BD9DF800003A4CC00701D0002200E0B4
:10129000012201212046FFF7E0FB9DF800004008F5
:1012A0008DF800009DF80000C00701D0002200E08A
:1012B000012202212046FFF7D0FB9DF800004008E4
:1012C0008DF800009DF80000C00701D0002200E06A
:1012D000012204212046FFF7C0FB9DF800004008D2
:1012E0008DF800009DF80000C00701D0002200E04A
:1012F000012208212046FFF7B0FB9DF800004008BE
:101300008DF800009DF80000C00701D0002200E029
:10131000012210212046FFF7A0FB9DF800004008A5
:101320008DF800009DF80000C00701D0002200E009
:10133000012220212046FFF790FB002038BD00004D
:101340002D2D2D2D2D2D2D2D2D2D2D2D2D2D2D4FAB
:101350007574206F662072616E6765212D2D2D2DAD
:101360002D2D2D2D2D2D2D2D2D2D2D0D0A00000077
:10137000000C0140FEE7000070B586B0002428484C
:101380000094019402940394816941F020018161E9
:10139000816901F020010491816941F004018161BA
:1013A000816901F004010491816941F008018161C2
:1013B00080691C4D00F00800049000227E21284620
:1013C000FFF74BFB184E01223F213046FFF745FB4C
:1013D0008120CDE900040124694628460294FFF7E4
:1013E00055FA3E20CDE9000402946946284603944C
:1013F000FFF74CFA4020CDE900040220CDE902407D
:1014000069462846FFF742FA3F20CDE90004032051
:10141000CDE9024069463046FFF738FA06B070BDA4
:101420000010024000080140000C01400C4810B5BB
:101430000A4901604FF4E1314160002181600C22D2
:10144000C160C0E904128161C161FFF73DFE00285F
:1014500003D0BDE81040FFF706BA10BD00380140C8
:1014600018040020FEE770470907090E002806DA75
:1014700000F00F0000F1E02080F8141D704700F12B
:10148000E02080F80014704770B5002404F1B0002B
:10149000C0B2002100F056F90021084600F052F9D0
:1014A0000021102000F04EF900250121002000F05D
:1014B00049F96D1CEDB2802DF7D3641CE4B2082C01
:1014C000E4D370BD2DE9F0479846174682460026C2
:1014D0000C46DDF8209011E02146504600F0A8F8B7
:1014E000554607E019F806000121761C00F02AF99C
:1014F0006D1CEDB2BD42F5D3641CE4B24445EBD3A0
:10150000BDE8F08710B5494C012208212046FFF7BD
:10151000A4FA6420FFF7A8F9002208212046FFF76B
:101520009CFAC820FFF7A0F9012208212046FFF706
:1015300094FA0021AE2000F005F90021084600F0E1
:1015400001F90021102000F0FDF80021402000F0FA
:10155000F9F80021812000F0F5F80021CF2000F0FB
:10156000F1F80021A12000F0EDF80021C82000F0E2
:10157000E9F80021A62000F0E5F80021A82000F0FD
:10158000E1F800213F2000F0DDF80021D32000F039
:10159000D9F80021084600F0D5F80021D52000F048
:1015A000D1F80021802000F0CDF80021D92000F0F2
:1015B000C9F80021F12000F0C5F80021DA2000F080
:1015C000C1F80021122000F0BDF80021DB2000F05E
:1015D000B9F80021402000F0B5F80021202000F0EB
:1015E000B1F80021022000F0ADF800218D2000F0BC
:1015F000A9F80021142000F0A5F80021A42000F093
:10160000A1F80021A62000F09DF80021AF2000F0F5
:1016100099F80021AF2000F095F8FFF735FF002181
:10162000BDE81040084600F003B800000008014083
:1016300010B50446B031C8B2002100F083F8102084
:1016400040EA1410002100F07DF804F00F00BDE81E
:10165000104040F00100002100F074B82DE9F04185
:10166000203A00240D468046D6B27F2803D90020B8
:101670008D1C8046EDB2102B09D00C2B29D0BDE873
:10168000F041102300211CA2084600F03FB8294673
:10169000FFF7CEFF1B4F00BF04EB06100121385CA3
:1016A00000F050F8641CE4B2082CF5D36D1CE9B2CC
:1016B0004046FFF7BDFF002404EB0610384401212B
:1016C000007A00F03FF8641CE4B2082CF4D3BDE8C3
:1016D000F0816D1CE9B2FFF7ABFF0B4906EB46004A
:1016E00001EB40050121285D00F02CF8641CE4B2F8
:1016F000062CF7D3EBE7000053495A4520455252D8
:101700004F52210070270008482500082DE9F041BC
:10171000984617460E46044600250DE043463146DE
:101720002046FFF79BFF0834E4B2782C02D900244E
:10173000B61CF6B26D1CEDB27A5D002AEED1BDE8A2
:10174000F081000070B51A4E054609B1012200E093
:10175000002210213046FFF780F900222021304678
:10176000FFF77BF90024002202213046FFF775F9CC
:10177000280601D5012200E0002204213046FFF7AF
:101780006CF9012202213046FFF767F96806641CF4
:10179000050EE4B2082CE6D3012220213046FFF7E3
:1017A0005CF93046BDE8704001221021FFF755B9C1
:1017B0000008014070477047FFF75AB930B58FB045
:1017C00028216846FEF7C5FC14210AA8FEF7C1FCD3
:1017D00001210804CDE9001000240294022504919F
:1017E000CDE907504FF4E01009906846FFF7D6FAAC
:1017F0000F20CDE90A056802CDE90C4002210AA8B4
:101800000E94FFF7BFF90FB030BD00000D4801681E
:1018100041F00101016041680B4A114041600168DB
:101820000A4A11400160016821F480210160416889
:1018300021F4FE0141604FF41F0181600449C0039F
:1018400008607047001002400000FFF8FFFFF6FE3E
:1018500008ED00E02DE9F041044600680169E26806
:1018600021F44051114301612169A0680843616975
:1018700008432168CA6841F20C639A430243CA6074
:1018800020684169A26921F44071114341614C49CA
:1018900020686425322688423CD1FFF739FA00EBF4
:1018A000C00101EB001061688900B0FBF1F7FFF7A0
:1018B0002FFA00EBC00101EB00106168B04689000F
:1018C000B0FBF1F0B0FBF5F06FF01801484307EB07
:1018D000800106EB0110B0FBF5F000F0F006FFF719
:1018E00017FA00EBC00101EB001061688900B0FB42
:1018F000F1F0B0FBF5F006EB0016FFF709FA00EB8C
:10190000C00101EB001061688900B0FBF1F7FFF73F
:10191000FFF93BE0FFF7ECF900EBC00101EB001031
:1019200061688900B0FBF1F7FFF7E2F900EBC00155
:1019300001EB00106168B0468900B0FBF1F0B0FB2C
:10194000F5F06FF01801484307EB800106EB01103A
:10195000B0FBF5F000F0F006FFF7CAF900EBC001AC
:1019600001EB001061688900B0FBF1F0B0FBF5F00D
:1019700006EB0016FFF7BCF900EBC00101EB00100D
:1019800061688900B0FBF1F7FFF7B2F900EBC00125
:1019900001EB001061688900B0FBF1F0B0FBF5F0DD
:1019A0006FF01801484307EB800108EB0110B0FB12
:1019B000F5F0216800F00F0030448860BDE8F08148
:1019C000003801402DE9F041984617460E4604467E
:1019D000069D1DE0681C1BD02DB1FFF743F8A0EB5E
:1019E0000800A84214D92068C16821F4D071C160F0
:1019F0002068416921F001014161202084F839000B
:101A000084F83A00002084F838000320BDE8F08113
:101A10002068006836EA000004D00020B842D9D01F
:101A20000020F3E70120F9E7FEE700000FB4054BC3
:101A300010B503A9044A029800F0EEF810BC5DF856
:101A400014FB0000AD230008140400200FB4084B61
:101A500010B504A902AA039800F0DEF8044602A912
:101A6000002000F070FC204610BC5DF814FB000064
:101A70004723000802E008C8121F08C1002AFAD153
:101A800070477047002001E001C1121F002AFBD1FE
:101A9000704700002DE9FF5F82B00021DDE90430CE
:101AA000020DDDF840B0034318D044F61050A2F206
:101AB000FF3242431514119801281FD0A5EB0B00EB
:101AC000401C5FEA000A4FF000064E4FDFF83891E5
:101AD000B046504615D5CAF1000413E01198012410
:101AE0004AA3012801D16FEA0B010298119AC0E9BB
:101AF0000031C0E9024206B0BDE8F09FCBF1000022
:101B0000DFE704460021404A491842EB0450CDE982
:101B1000001012E0E00707D032463B4640464946F7
:101B2000FEF7D2FC8046894632463B4610461946AF
:101B3000FEF7CAFC06460F466410002CEAD1DDE928
:101B40000401DDE90023BAF1000F06DAFEF7BCFC60
:101B500042464B46FEF7B8FC05E0FEF727FD42463D
:101B60004B46FEF723FD04460E460022284BFEF7A7
:101B7000A5FD03D84FF0FF30014607E00022254BBA
:101B800020463146FEF7F9FBFEF77FFD102409E001
:101B9000002C0ADB0A220023FEF787FB039B30326E
:101BA0001A55641E50EA0102F2D1641C039AC4F172
:101BB00011031444119A012A03D0012208430DD1C4
:101BC0000AE0084304D000204FF0110B119072E797
:101BD000A3EB0B056D1E0DE05B4504DD4FF000022D
:101BE00005F1010504E003DA4FF00002A5F101055B
:101BF000002AECD002981199C0E90231C0E90045F1
:101C000079E70000000014400000F03F30000000C1
:101C10000000F0430000E03F2DE9FF4F95B09B46E8
:101C20008946064600250FE2252877D1002427465D
:101C3000F84A0121059400E0044316F8013F203BD7
:101C400001FA03F01042F7D130782A2811D06FF052
:101C50002F033078A0F13002092A16D8059A44F0F3
:101C6000020402EB820203EB42021044761C059050
:101C7000EFE759F8042B0592002A03DA504244F4A6
:101C80000054059044F00204761C30782E2816D1BA
:101C900016F8010F44F004042A280DD06FF02F022B
:101CA0003078A0F13003092B09D807EB870302EB4A
:101CB0004303C718761CF3E759F8047B761C307889
:101CC0006C280FD006DC4C2817D068280DD06A2865
:101CD00014D104E0742810D07A280FD10DE044F418
:101CE00000140AE044F4801401E044F440147278D3
:101CF000824202D104F58014761C761C3078662866
:101D00000BD013DC582877D009DC002875D0452883
:101D1000F6D04628F4D047281AD19DE118E0632870
:101D200035D0642879D0652812D195E1702873D018
:101D300008DC6728F1D069286FD06E280DD06F2895
:101D400006D1B5E073282CD0752875D0782874D0CA
:101D50005A46179990476D1C75E1C4F3025002284A
:101D600009D003280DD0D9F8001004280DD00D603B
:101D700009F1040967E1D9F80010EA17C1E9005236
:101D8000F6E7D9F800100D80F2E70D70F0E719F8CA
:101D9000041B8DF8001000208DF80100EA46012098
:101DA00003E059F804AB4FF0FF3061074FF000013A
:101DB00002D40DE008F101018846B9420FDA8045EE
:101DC000F8DB1AF808100029F4D108E008F1010145
:101DD00088468142FADB1AF808100029F6D10598E6
:101DE0005B46A0EB080721463846179A00F094FAA4
:101DF000284400EB080507E04DE029E10DE01AF862
:101E0000010B5A4617999047B8F10108F7D25B4683
:101E100021463846179A13E142E00A220092C4F3A1
:101E200002524FF0000A022A08D059F804CB032AC4
:101E30004FEAEC710AD00DE029E02AE009F1070130
:101E400021F00702F2E802C1914609E00FFA8CFC8A
:101E50004FEAEC71042A03D14FFA8CFC4FEAEC7183
:101E6000002907DA0A460021DCF1000C61EB0201CF
:101E70002D2202E0220504D52B228DF80420012218
:101E800003E0E20701D02022F7E7904659E00A215B
:101E900002E010220DE010214FF0000A00910BE04B
:101EA00010224FF0000A44F004040827009203E0D7
:101EB00008224FF0000A0092C4F30252022A05D011
:101EC00059F804CB0021032A08D009E009F10701E1
:101ED00021F00702F2E802C1914605E01FFA8CFCEE
:101EE000042A01D10CF0FF0C4FF00008220728D57E
:101EF000702806D0009B83F0100353EA0A0305D034
:101F00000EE040228DF80420012208E05CEA010284
:101F100006D030228DF804208DF80500022290466C
:101F2000009B83F0080353EA0A030AD15CEA01022A
:101F300001D1620705D530228DF804204FF0010849
:101F40007F1E582804D034A003900EA802900DE004
:101F500036A0F9E753466046009AFEF7A6F9844694
:101F60000398825C0298401E029002705CEA0100B5
:101F7000F0D1029806A9081A00F1200A600702D5DC
:101F800024F4803400E00127574502DDA7EB0A0066
:101F900000E0002000EB0A01009005984144401A3F
:101FA0000590E00306D45B462146179A059800F099
:101FB000B3F90544002706E001A85A46C05D179909
:101FC00090476D1C7F1C4745F6DBE0030CD55B4654
:101FD0002146179A059800F09FF9054404E0302047
:101FE0005A46179990476D1C0099481E0090002989
:101FF000F5DC08E0029802995A460078491C0291E3
:10200000179990476D1CBAF10001AAF1010AF1DCA1
:1020100065E10000092801003031323334353637AC
:102020003839616263646566000000003031323324
:1020300034353637383941424344454600000000C4
:1020400000F058F90544761C307800287FF4ECAD98
:1020500019B02846BDE8F08F620700D4062709F1C1
:10206000070222F0070CFCE80223E14603F00048D7
:102070005FEA080C02D00FF2702C0DE05FEA045CFE
:1020800002D50FF2682C07E05FEAC47C02D00FF2A1
:10209000602C01E0AFF2700C4FF0FF3823F00043EA
:1020A000CDF850C065280CD006DC452809D046285C
:1020B0001DD047283DD13DE0662818D067287ED145
:1020C00038E00021112F01DB112000E0781CCDE960
:1020D000000106A90EA8FFF7DDFCDDE90F010E9A4D
:1020E00003910021009207F1010A04914DE04FF0A5
:1020F00000400097CDE9011006A90EA8FFF7CAFC21
:10210000DDE90F0203920E9B11990022DDF80CA06D
:102110000093049211B9791C00EB010AB7EB0A0095
:1021200004D4C0F1FF3007F1010A0490AAEB0700C4
:10213000019044E0012F00DA01270021112F01DD79
:10214000112000E03846CDE9000106A90EA8FFF7EE
:10215000A1FCDDE90F010E9A039100210491009288
:10216000BA4621070CD40399514500DA8A46BAF1E0
:10217000010F05DD009AAAF10101515C302908D058
:10218000B84202DA10F1040F06DA0121CDE901109C
:1021900015E0AAF10101E9E7002805DC04990144F2
:1021A0000491AAEB000102E0411C514500DD8A4682
:1021B0000499401A401C01904FF000400290200703
:1021C00004D40198504501DBCDF8048000208DF83F
:1021D0004F0002980DF14F07B0F1004F25D02B2092
:1021E0000E9002984FF0020800280CDA404202904C
:1021F0002D200E9007E00A210298FEF740F83031BA
:10220000029007F8011DB8F10001A8F10108F2DC05
:1022100002980028EFD1791E0E980870307800F0EF
:10222000200040F0450007F8020D12A8C01B00F185
:1022300007081498007800B1012000EB0A0101980A
:1022400001EBE07105984144401A401E0590E003FF
:1022500006D45B462146179A059800F05DF80544C0
:102260001498007818B15A46179990476D1CE003EE
:1022700024D55B462146179A059800F04DF8054491
:102280001CE00498002807DBDDE90301884203DD38
:102290000098405C179901E0179930205A46904702
:1022A000049805F10105401C04900198401E01901E
:1022B00004D12E205A46179990476D1CBAF100019F
:1022C000AAF1010ADDDC05E017F8010B5A4617995F
:1022D00090476D1CB8F10001A8F10108F4DC5B46E1
:1022E0002146179A0598ABE62D0000002B00000050
:1022F000200000002DE9F041044600251E46174647
:10230000880404D405E039462020B0476D1C641EC3
:10231000F9D52846BDE8F0812DE9F04104460025B5
:102320001E469046C80301D5302700E020278804C8
:1023300004D505E041463846B0476D1C641EF9D50A
:102340002846BDE8F0810A68531C0B601070704786
:1023500010B5102309A200210420FFF7D7F910239C
:102360000AA202210420FFF7D1F910230621BDE8BB
:1023700010400AA20420FFF7C9B900004154544597
:102380004E5541544F522054455354002053573317
:102390003A2B2020205357343A2D00004D756C7491
:1023A000693A2D20202020206442000013B54FF60A
:1023B000FF73012269460248FEF7F0FE00981CBD3B
:1023C0001804002070B50126204D214C012812D0A0
:1023D000287848B101212046FEF736FB68B18021FC
:1023E0002046FEF731FB40B101212046FEF72CFBD1
:1023F000012821D027E02E70ECE70A20FEF734FAFE
:1024000000262E7001212046FEF71EFB20B1802100
:102410002046FEF719FBB0B92E7001212046FEF7C9
:1024200013FB28B180212046FEF70EFB10B10AE015
:10243000012070BD022070BD80212046FEF704FB04
:10244000012800D12E70002070BD00000004002083
:10245000000801401CB532A0002400680190FEF77E
:102460000FFBFFF7ABF9FEF787FFFEF7DFFFFFF784
:1024700049F82C4800210090082380220846FFF7E5
:1024800021F84FF47A70FEF7EFF9FEF7FDFFFFF742
:102490005FFF254F4FF07C580120FFF793FF012885
:1024A00002D0022809D014E0BC4204D041462046A4
:1024B000FDF75AFE0AE000240BE041468C4207D0AB
:1024C00014F0FF4F04D02046FDF7A0FE044600E0C4
:1024D0003C462046FEF7C0FE2046FDF7BDFE89467D
:1024E00005464B462A4611A101A8FFF7AFFA102373
:1024F00001AA06213C20FFF709F90A2E09D100267E
:1025000040210C48FEF7A5FA2A464B460AA0FFF7E1
:102510008DFA761CF6B23220FEF7A6F9BCE7000071
:10252000302E3030000000200000FC41252E3266A5
:1025300000000000000801404D756C74693A202DC0
:10254000252E32660A000000000000000000000096
:10255000002F000000000700070000147F147F1404
:1025600000242A7F2A12006264081323003649558A
:10257000225000000503000000001C224100000062
:1025800041221C000014083E08140008083E0808F8
:10259000000000A060000008080808080000606053
:1025A0000000002010080402003E5149453E000092
:1025B000427F4000004261514946002141454B3174
:1025C000001814127F10002745454539003C4A4940
:1025D00049300001710905030036494949360006B2
:1025E0004949291E0000363600000000563600001A
:1025F0000008142241000014141414140000412295
:10260000140800020151090600324959513E007C6C
:102610001211127C007F49494936003E4141412256
:10262000007F4141221C007F49494941007F09093F
:102630000901003E4149497A007F0808087F0000EF
:10264000417F4100002040413F01007F08142241AA
:10265000007F40404040007F020C027F007F040862
:10266000107F003E4141413E007F09090906003EBE
:102670004151215E007F09192946004649494931E7
:102680000001017F0101003F4040403F001F20400A
:10269000201F003F4038403F0063140814630007C8
:1026A0000870080700615149454300007F4141001F
:1026B00000552A552A55000041417F0000040201BF
:1026C000020400404040404000000102040000209D
:1026D00054545478007F48444438003844444420DB
:1026E00000384444487F00385454541800087E0988
:1026F00001020018A4A4A47C007F08040478000050
:10270000447D4000004080847D00007F102844000C
:102710000000417F4000007C04180478007C08041D
:10272000047800384444443800FC24242418001859
:10273000242418FC007C0804040800485454542045
:1027400000043F444020003C4040207C001C2040CE
:10275000201C003C4030403C004428102844001C11
:10276000A0A0A07C004464544C4414141414141409
:102770000000000000000000000000000000000059
:10278000000000F8000000000000003330000000EE
:1027900000100C06100C06000000000000000000F5
:1027A00040C07840C0784000043F04043F04040067
:1027B000007088FC08300000001820FF211E000077
:1027C000F008F000E018000000211C031E211E008C
:1027D00000F00888700000001E2123241927211012
:1027E00010160E00000000000000000000000000B5
:1027F000000000E01804020000000007182040005C
:1028000000020418E000000000402018070000004B
:10281000404080F0804040000202010F01020200AF
:10282000000000F0000000000101011F0101010093
:10283000000000000000000080B0700000000000F8
:102840000000000000000000000101010101010181
:102850000000000000000000003030000000000018
:1028600000000000806018040060180601000000ED
:1028700000E010080810E000000F102020100F00EA
:10288000001010F8000000000020203F2020000071
:1028900000700808088870000030282422213000C9
:1028A00000300888884830000018202020110E00D1
:1028B0000000C02010F8000000070424243F24007A
:1028C00000F80888880808000019212020110E004F
:1028D00000E0108888180000000F112020110E0061
:1028E00000380808C83808000000003F0000000059
:1028F0000070880808887000001C222121221C001A
:1029000000E010080810E0000000312222110F0042
:10291000000000C0C00000000000003030000000D7
:102920000000008000000000000080600000000047
:102930000000804020100800000102040810200060
:1029400040404040404040000404040404040400AB
:102950000008102040800000002010080402010040
:10296000007048080808F000000000303601000040
:10297000C030C828E810E0000718272423140B00F3
:102980000000C038E0000000203C2302022738206D
:1029900008F8888888700000203F202020110E0051
:1029A000C030080808083800071820202010080048
:1029B00008F808080810E000203F202020100F0031
:1029C00008F88888E8081000203F202023201800FD
:1029D00008F88888E8081000203F20000300000065
:1029E000C03008080838000007182020221E020006
:1029F00008F808000008F808203F210101213F20C5
:102A0000000808F8080800000020203F20200000EF
:102A100000000808F8080800C08080807F000000DF
:102A200008F888C028180800203F20012638200018
:102A300008F8080000000000203F2020202030007F
:102A400008F8F800F8F80800203F003F003F200099
:102A500008F830C00008F808203F200007183F00A1
:102A6000E01008080810E0000F10202020100F00D0
:102A700008F808080808F000203F210101010000C3
:102A8000E01008080810E0000F18242438504F0008
:102A900008F8888888887000203F2000030C3020C8
:102AA00000708808080838000038202121221C0006
:102AB000180808F8080818000000203F200000004F
:102AC00008F808000008F808001F202020201F0038
:102AD0000878880000C83808000007380E01000098
:102AE000F80800F80008F800033C0700073C030062
:102AF000081868808068180820302C03032C3020C8
:102B00000838C800C83808000000203F2000000036
:102B100010080808C838080020382621202018008E
:102B2000000000FE020202000000007F4040400062
:102B3000000C30C000000000000000010638C0009A
:102B400000020202FE000000004040407F00000042
:102B50000000040202020400000000000000000067
:102B60000000000000000000808080808080808065
:102B7000000202040000000000000000000000004D
:102B800000008080808000000019242222223F2043
:102B900008F8008080000000003F112020110E0086
:102BA0000000008080800000000E11202020110015
:102BB000000000808088F800000E112020103F20C7
:102BC0000000808080800000001F2222222213004B
:102BD000008080F0888888180020203F2020000096
:102BE0000000808080808000006B9494949360004B
:102BF00008F8008080800000203F210000203F2056
:102C000000809898000000000020203F2020000055
:102C1000000000809898000000C08080807F000045
:102C200008F8000080808000203F24022D30200022
:102C3000000808F8000000000020203F20200000CD
:102C40008080808080808000203F20003F20003FE7
:102C50008080008080800000203F210000203F20F5
:102C60000000808080800000001F202020201F00A6
:102C7000808000808000000080FFA12020110E00D5
:102C80000000008080808000000E112020A0FF80C6
:102C9000808080008080800020203F212000010073
:102CA00000008080808080000033242424241900C8
:102CB000008080E0808000000000001F20200000D5
:102CC0008080000000808000001F202020103F2016
:102CD000808080000080808000010E3008060100A6
:102CE00080800080008080800F300C030C300F004B
:102CF00000808000808080000020312E0E31200076
:102D0000808080000080808080818E7018060100A5
:102D100000808080808080000021302C22213000C3
:102D200000000000807C020200000000003F4040E4
:102D300000000000FF00000000000000FF00000095
:102D40000002027C800000000040403F00000000C4
:102D5000000601010202040400000000000000005F
:102D6000000000000000000001020304060708093B
:102D70000000000001020304982D0008000000205C
:102D8000180400000C0800085C2F0008180400203C
:102D900040040000841A00080A2AFF0158093F1F56
:102DA0000F0F0707070301181007078FCFCFEFEFAB
:102DB000EFF7F7F7FFFBFBFB21EAFD0119172901EC
:102DC000B809FFF7F7E7E7C383010119400A2B0FA2
:102DD0007FA3E0800E2BC0E0F0F8FE3E29016FFEDD
:102DE000FEFCF8F0C0475C80C0F0436C7F7F3F0181
:102DF0004D1F070301610D11E0F0F1F94113FC18BB
:102E000069372821FFFFF2F2F0D8989880C1C1C33A
:102E1000E3E7FFFFFBFBF3F3F3E1E1C0D09898B8E1
:102E2000B2E2E6E7010A12F7877DFCE4CE3E0E4AE5
:102E30008F71F10D1001037F7F3A1A7FA0DA081419
:102E40002ABF046ABFC02ABF0F19010E11CF9F9F6E
:102E50003F3F4279014FF0030F1F1F3F8FD80CF8FF
:102E6000F0F0F0E0E0C0C0C08080861B0103013AB2
:102E700007015B0301A80A100F5939EB9DEFFFFF13
:102E8000F70109167948087F7F3F3F1F0F074DF96B
:102E90001E1AFE8E3AF88DEA808DF99A39971A0F2C
:102EA00001D80E1F1F1C1C1C3C38383C3C3C3E3FCC
:102EB000013A1F01192519C27A03C4810916A51800
:102EC00010FFBFBFAFAFAF87072FAFAF9F9FAFBFA1
:102ED00011180FAFAF3737674F5F5F5F6F3737B787
:102EE000AF111B1F4FF318080FFF9F47E7EFEF08C5
:102EF000180DFFFFDFDF474F7F5F5F47577F012AD6
:102F0000DF331A8F443CAFAF27060A178F6B0913C4
:102F1000011808FDFDFFF0F0EEED014CEFF7F313A3
:102F20002AF00E3AEC1329121FE0F6F7F7F7E00942
:102F30003EEEEEEFF7F0223BE0FB013CEBEBE9105D
:102F40002809EFF7F9FAF7F7EFE0330C12EDEFEF9E
:0C2F50006732012904821044A24A0400E8
:04000005080000ED02
:00000001FF
